:060000000A128A11122809
:10000800FE00030EF2000408F3000A08F40083124D
:1000180003137F08F5000A128A1144290A128A116B
:100028001528AB01AC010A128A11EC210A128A11B7
:10003800A0000A128A11ED210A128A11A1000A12DF
:100048008A11EE210A128A11A2000A128A11EF21DE
:100058000A128A11A3000A128A11F0210A128A11BF
:10006800A4000A128A11F1210A128A11A5000A12A3
:100078008A11F221F80083010A128A1143280630F6
:10008800831603139F008501013086008701FF3026
:1000980088000A128A118F210A128A1144308316A5
:1000A800031381000B168B160B118B17C8300A121D
:1000B8008A11B7210A128A1154300A128A11CB21E7
:1000C8000A128A1149300A128A11CB210A128A119E
:1000D8004D300A128A11CB210A128A1145300A12B0
:1000E8008A11CB210A128A113A300A128A11CB21BD
:1000F8000A128A11780803197E2883120313250827
:10010800A701A7072408A601A6070A128A11DF215A
:100118000A128A110429CD300A128A11B7210A124B
:100128008A1131300A128A11CB210A128A11282920
:10013800CD300A128A11B7210A128A1132300A12F6
:100148008A11CB210A128A112829CD300A128A1164
:10015800B7210A128A1133300A128A11CB210A12E6
:100168008A112829CD300A128A11B7210A128A1158
:1001780034300A128A11CB210A128A112829CD306B
:100188000A128A11B7210A128A1135300A128A1105
:10019800CB210A128A112829CD300A128A11B721D7
:1001A8000A128A1136300A128A11CB210A128A11D0
:1001B8002829CD300A128A11B7210A128A1137303C
:1001C8000A128A11CB210A128A112829CD300A1263
:1001D8008A11B7210A128A1138300A128A11CB21E2
:1001E8000A128A112829CD300A128A11B7210A1257
:1001F8008A1139300A128A11CB210A128A11282948
:10020800831203132108003A03190B29282920080F
:10021800013A03198F28033A03199C28013A031954
:10022800A928073A0319B628013A0319C328033A3B
:100238000319D028013A0319DD280F3A0319EA28CF
:10024800013A0319F7282829013083120313A0075C
:100258000318A10A0030A1072108803AFF00803066
:100268007F02031D39290A302002031C7E288312CD
:1002780003132308A101A1072208A001A0077E28D3
:100288008B138B1C7A298B1008080F39F000F101A9
:100298007008F6007108F7006429063058291E30E6
:1002A80058293D3058297A30A4000030A5007A2911
:1002B800780803196129F8017A29F801F80A7A29D6
:1002C8007708003A031969297A297608003A031948
:1002D8005129013A03195329033A03195529063AB2
:1002E80003195729013A03195C297A290B1D832917
:1002F8000B110130AB070318AC0A0030AC078B17A1
:100308007508FF0074088A0073088400720E830061
:10031800FE0E7E0E0900823083120313AA00DD3020
:10032800A900A90B9529AA0B95299A2938300A12F0
:100338008A11B7210A128A1108300A128A11B721C4
:100348000A128A1101300A128A11B7210A128A1177
:1003580006300A128A11B7210A128A110C300A12C1
:100368008A11B721080083120313A8002808870000
:10037800051085148230A700DD30A600A60BC2291F
:10038800A70BC229C72983120313851008008312FB
:100398000313A80028088700051485148230A700D5
:1003A800DD30A600A60BD629A70BD629DB29831298
:1003B80003138510080083120313AB01AC0127084F
:1003C8002C02031DE92926082B0203180800E3293B
:0E03D80001340034013400341E34003401348A
:02400E0071FF40
:00000001FF
