:060000000A128A11FC2F18
:100DC600F6007608831203138600071407118714AA
:100DD6000130F0000030F1000A128A112F27831229
:100DE600031387100800F6007608831203138600A3
:100DF6000710071187140130F0000030F1000A12C5
:100E06008A112F2783120313871008000130F00080
:100E16000030F1000A128A112F270A128A1138307F
:100E26000A128A11F6260A128A1108300A128A1143
:100E3600F6260A128A1101300A128A11F6260A12B9
:100E46008A1106300A128A11F6260A128A110E3003
:100E56000A128A11F62608007108F301F3077008D2
:100E6600F201F2077308720403190800F401F50190
:100E76007508803AFF0093307F02031D442F8830A7
:100E860074020318572F0130F4070318F50A0030CF
:100E9600F5077508803AFF0093307F02031D552F32
:100EA60088307402031C462FFF30F2070318F30A3A
:100EB600FF30F307352F8316031386018701FF30B2
:100EC60088000A128A1109270A128A11F801F90103
:100ED60083120313081E6B2F08080F39F7007708D3
:100EE600FA00143078067904031D802FC0300A12E8
:100EF6008A11F6260A128A11AA2F28307806790452
:100F0600031D8C2F94300A128A11F6260A128A11B2
:100F1600AA2F3C3078067904031D982FD4300A1284
:100F26008A11F6260A128A11AA2F7908803AFF003A
:100F360080307F02031DA12F50307802031CAA2F98
:100F46000A128A1109270A128A11F801F901FA0808
:100F5600031DAF2F3130F02F7A08013A031DB52F4C
:100F66003230F02F7A08023A031DBB2F3330F02FB0
:100F76007A08043A031DC12F3430F02F7A08053A57
:100F8600031DC72F3530F02F7A08063A031DCD2FE3
:100F96003630F02F7A08083A031DD32F3730F02F5A
:100FA6007A08093A031DD92F3830F02F7A080A3A01
:100FB600031DDF2F3930F02F7A080C3A031DE52F79
:100FC6002A30F02F7A080D3A031DEB2F3030F02F20
:100FD6007A080E3A031DF52F23300A128A11E326EA
:100FE6000A128A110130F8070318F90A0030F907C6
:0A0FF6006B2F83010A128A115E2F8F
:02400E0071FF40
:00000001FF
