:060000000A128A11F02F24
:100C56000A34193432344B345F34F9347C343D343D
:100C66007E088A007F08820033260A128A118000D5
:100C7600840A04087D0603190034FF0A0319FE0AD4
:100C8600372E0030FC000030FB000030FA00003048
:100C9600F900701C622E7408F90775080311031811
:100CA600013E031DFA07760803110318013E031DD2
:100CB600FB07770803110318013E031DFC070130EB
:100CC600F8000310F40DF50DF60DF70DF80B642E74
:100CD60001300310F30CF20CF10CF00CFF3E031D77
:100CE6006C2E7308720471047004031D4C2E7C086C
:100CF600F3007B08F2007A08F1007908F00008009A
:100D0600003083120313AB000030AA000030A900A4
:100D16000030A80023082204210420040319DA2E37
:100D2600AC01AC0AA31BA52E0130FD000310A00DDB
:100D3600A10DA20DA30DFD0B992E0130FD007D081E
:100D4600AC07952E0130FD000310A80DA90DAA0DC4
:100D5600AB0DFD0BA72E23082702031DBC2E220870
:100D66002602031DBC2E21082502031DBC2E2008C9
:100D76002402031CCD2E2008A4022108031C210FE7
:100D8600A5022208031C220FA6022308031C230F18
:100D9600A702281401300310A30CA20CA10CA00C6E
:100DA600FF3E031DCE2E0130AC02031DA52E2B08DF
:100DB600A3002A08A2002908A1002808A00008000C
:100DC60083120313B2003208831603139200003015
:100DD60083120313A3000030A2000030A100643088
:100DE600A0002D08AE00AF01B001B1010230031022
:100DF600AE0DAF0DB00DB10DFF3E031DFA2E31083D
:100E0600F3003008F2002F08F1002E08F0008316D8
:100E160003131208013EF400003003180130F500F8
:100E2600F601F51BF6037608F7000A128A11442626
:100E36000A128A11730883120313A7007208A60008
:100E46007108A5007008A4000A128A1183260A12E6
:100E56008A11831203132108B401B4072008B301D1
:100E6600B3073408AF003308AE000310AF0CAE0C66
:100E76000310AF0CAE0C2E08950033080339AE00F4
:100E860004300310AE0DFF3E031D442F1708CF3963
:100E96002E0497000800FF3083160313860087018F
:100EA6000C3083120313970006309200C001C10173
:100EB6004708BD004808BE004908BF003830840016
:100EC600420883138000840A43088000840A440889
:100ED6008000840A45088000840A4608800041088C
:100EE600383E84000008B5003508AD0040083D3E98
:100EF600840000080A128A11E3260A128A110230B7
:100F060083120313B7000430B600BA30B500B50B30
:100F16008A2FB60B8A2FB70B8A2F00008312031372
:100F2600061CC12F0230B7000430B600BA30B50037
:100F3600B50B9B2FB60B9B2FB70B9B2F00000130D9
:100F460083120313B5003508C007033040020318A7
:100F5600C0014108383E840083130008B5003508F7
:100F6600AD0040083D3E840000080A128A11E326BF
:100F76000A128A11831203130618BD2F861C912F9D
:100F86000230B7000430B600BA30B500B50BC92F31
:100F9600B60BC92FB70BC92F0000013083120313FC
:100FA600B5003508C107053041020318C1014108E3
:100FB600383E840083130008B5003508AD004008AC
:100FC6003D3E840000080A128A11E3260A128A119D
:100FD60083120313861C912FEB2F83134A30FD00D7
:100FE6000630FE002B30FF00423084000A128A11C0
:0A0FF600372683010A128A114E2FDC
:02400E0071FF40
:00000001FF
