:060000000A128A11122809
:10000800FE00030E83120313C0000408C1000A088F
:10001800C2007F08C3000A128A11AD290A128A1188
:100028001528C601C701C801C901CA01CB01CC0105
:10003800CD01CE0183010A128A11242C83120313E5
:100048002008A6002108A7002208A8000310270DF1
:10005800280DA9002908AA00AA08031D3A2800307B
:10006800A0000030A1000030A20008002308A6006C
:100078002408A7002508A8000310270D280DA900AB
:100088002908AF00AF08031D50280030A000003039
:10009800A1000030A20008002F087B3EA600260819
:1000A800AA072008A6002108A7002208A8001030E7
:1000B8000310A80CA70CA60CFF3E031D5C282608FD
:1000C800A9002908AF002308A6002408A7002508CE
:1000D800A80010300310A80CA70CA60CFF3E031DA7
:1000E8006E282608A9002908AF068030A600260831
:1000F800AF05A117A417FF30A305FF30A4050030F2
:10010800A5050030AB000030AC000030AD00073072
:10011800A6002608AE00201C9F282308AB07240849
:1001280003110318240A031DAC072508031103183B
:10013800250A031DAD0701300310A20CA10CA00C69
:10014800FF3E031DA02801300310A30DA40DA50D2B
:10015800FF3E031DA8280130AE02031D8F28093079
:10016800A6002608AE00201CC7282308AB072408D1
:1001780003110318240A031DAC07250803110318EB
:10018800250A031DAD0701300310A20CA10CA00C19
:10019800FF3E031DC82801300310AD0CAC0CAB0C9E
:1001A800FF3E031DD0280130AE02031DB7282B08DF
:1001B800F0002C08F1002D08F2002A08A6002608F5
:1001C800F3002F08A7002708F4000A128A11EF226B
:1001D800700883120313A0007108A1007208A2001E
:1001E8000800831203133308B6003408B700350833
:1001F800B8000310370D380DB9003908BE00BE0825
:10020800031D0D290030B0000030B1000030B200ED
:1002180008003008B6003108B7003208B8000310EB
:10022800370D380DB9003908BF00BF08031D232951
:100238000030B0000030B1000030B20008000030DB
:10024800BB000030BC000030BD0089303F07B6005D
:100258003608BE023308B6003408B7003508B800BF
:1002680010300310B80CB70CB60CFF3E031D35292F
:100278003608B9003908BF003008B6003108B700A1
:100288003208B80010300310B80CB70CB60CFF3E9B
:10029800031D47293608B9003908BF068030B60063
:1002A8003608BF05B417FF30B305FF30B40500307A
:1002B800B505B117FF30B005FF30B1050030B20504
:1002C8001830B6003608BA0001300310BB0DBC0D5B
:1002D800BD0DFF3E031D692932083502031D7A2929
:1002E80031083402031D7A2930083302031C872998
:1002F8003008B3023108031C310FB4023208031C62
:10030800320AB5023B1401300310B30DB40DB50D1C
:10031800FF3E031D88290130BA02031D68293B08E6
:10032800F0003C08F1003D08F2003E08B60036082F
:10033800F3003F08B7003708F4000A128A11EF22C9
:10034800700883120313B0007108B1007208B2007C
:100358000800C401C5018B130C1F542A0C131E0876
:10036800CA01CA07831603131E0883120313C9019F
:10037800C907C030B0007F30B1004430B20000304F
:10038800A0004830A1004230A2004A08F901F9074C
:100398004908F801F8070A128A1103240A128A1177
:1003A800780883120313A3007908A4007A08A5002B
:1003B8000A128A1122200A128A11831203132008B2
:1003C800B3002108B4002208B5000A128A11F520EA
:1003D8000A128A11831203133008C6003108C700B5
:1003E8003208C8000A30A9000030AA004608F00008
:1003F8004708F1004808F2000A128A1163220A121B
:100408008A11710883120313AC01AC077008AB01A1
:10041800AB070A128A11B4230A128A118312031332
:100428002A08CC01CC072908CB01CB070A30A90040
:100438000030AA000A30A0000030A1004608F000F1
:100448004708F1004808F2000A128A1163220A12CA
:100458008A11710883120313A301A3077008A2016C
:10046800A2070A128A1157230A128A118312031348
:100478002108AC01AC072008AB01AB070A128A11AE
:10048800B4230A128A11831203132A08CE01CE0755
:100498002908CD01CD070A128A1142240A128A11AD
:1004A800831203131F158B174308FF0042088A00A5
:1004B80041088400400E8300FE0E7E0E090070087D
:1004C800F4007108F5007208F6000310750D760D3A
:1004D800F7007708FD00FD08031D7B2A0030F300B4
:1004E8000030F2000030F1000030F0000800700821
:1004F800F4007108F5007208F60017300310F60CC6
:10050800F50CF40CFF3E031D822A7408F7007708E7
:10051800F800F117FF30F005FF30F1050030F20563
:100528007008F9007108FA007208FB00FC018E30AF
:10053800FD02FD1FBD2A7D08803A8F3E0318AD2AB3
:100548000030F3000030F2000030F1000030F0001D
:10055800080001300310FC0CFB0CFA0CF90CFF3EF0
:10056800031DAE2A0130F4007408FD070319D82AC8
:10057800AD2A18307D02031CD52A0030F300003064
:10058800F2000030F1000030F00008000130F40003
:100598000310F90DFA0DFB0DFC0DF40BCC2A0130FC
:1005A800FD02FD08031DCA2A78080319E62AF9097D
:1005B800FA09FB09FC09F90A0319FA0A0319FB0AE3
:1005C8000319FC0A7C08F3007B08F2007A08F100A2
:1005D8007908F000080073080319F72A72087104F3
:1005E8007004031D0A2B0030F0000030F1000030C9
:1005F800F20008000130F5007508F3070130031018
:10060800F20CF10CF00CFF3E031D032BFE307205BB
:100618000319252BFE2A0130F5007508F307013070
:10062800F007003003180130F107003003180130DB
:10063800F20701300310F20CF10CF00CFF3E031D21
:100648001E2BFF3072050319342B0F2B0130F302D8
:1006580001300310F00DF10DF20DFF3E031D2D2B9F
:10066800F11F2A2B73183E2BFF30F0057F30F10560
:10067800FF30F2050310F30C7308F500F601F701DB
:1006880010300310F50DF60DF70DFF3E031D452B39
:100698007508F0047608F1047708F2047408031961
:1006A8000800F217080083120313A601A11F632B89
:1006B800A009A109A00A0319A10AA601A60AA31F55
:1006C8006E2BA209A309A20A0319A30A0130A400E8
:1006D8002408A606A701A801210820040319A52BB0
:1006E800A501A50AA11B842B01300310A00DA10DA3
:1006F800FF3E031D792B0130A4002408A507762BA3
:1007080001300310A70DA80DFF3E031D852B2108FE
:100718002302031D912B20082202031C9A2B200878
:10072800A2022108031CA303A3022714013003100B
:10073800A10CA00CFF3E031D9B2B0130A502031D3D
:10074800842B26080319AD2BA709A809A70A0319A2
:10075800A80A2808A101A1072708A001A0070800E6
:1007680083120313AF01AC1FC02BAB09AC09AB0A52
:100778000319AC0AAF01AF0AAA1FC72BA909AA0916
:10078800A90A0319AA0A2A0829040319F42BAE0195
:10079800AE0AAA1BDB2B01300310A90DAA0DFF3EE0
:1007A800031DD02B0130AD002D08AE07CD2B2A0834
:1007B8002C02031DE12B29082B02031CE92B290815
:1007C800AB022A08031CAC03AC0201300310AA0CCC
:1007D800A90CFF3E031DEA2B0130AE02031DDB2BE3
:1007E8002F080319FC2BAB09AC09AB0A0319AC0A97
:1007F8002C08AA01AA072B08A901A9070800FD01CE
:10080800F91F0D2CF809F909F80A0319F90AFD016D
:10081800FD0A7808F0007908F100F2018E30FB003B
:100828007B08F3007D08FC007C08F4000A128A119A
:10083800EF227008F8007108F9007208FA00080041
:100848008316031387018312031387018316031387
:1008580086018312031386018030831603139F00D9
:100868004130831203139F00831603130C1783125E
:1008780003130C130B178B171F15412C831203132B
:100888004D080F398600023087000730F1007D30AF
:10089800F000F00B4D2CF10B4D2C831203134B0879
:0A08A8000F398600013087000800B8
:02400E0071FF40
:00000001FF
