:060000000A128A11FC2F18
:100008007008F6007108F7007208F8000310770D01
:10001800780DF900790883120313A500A508031DBC
:100028001E280030F3000030F2000030F1000030EC
:10003800F00008007308F6007408F7007508F80067
:100048000310770D780DF9007908A400A408031DA2
:1000580036280030F3000030F2000030F1000030A4
:10006800F0000800F117FF30F005FF30F10500300F
:10007800F205F417FF30F305FF30F4050030F505FD
:100088000030A3000030A2000030A1000030A00022
:100098007F30A50298302407F6007608A5021830AC
:1000A800F6007608A4000130F6000310A00DA10D9B
:1000B800A20DA30DF60B592875087202031D6A28B4
:1000C80074087102031D6A2873087002031C7728DC
:1000D8007308F0027408031C740FF1027508031CFE
:1000E800750AF202201401300310F00DF10DF20D23
:1000F800FF3E031D78280130A402031D5728A51FC1
:10010800A3282508803A973E031893280030F30067
:100118000030F2000030F1000030F000080001303B
:100128000310A30CA20CA10CA00CFF3E031D9428E5
:100138000130F6007608A5070319BE289328183061
:100148002502031CBB280030F3000030F200003009
:10015800F1000030F00008000130F6000310A00D97
:10016800A10DA20DA30DF60BB2280130A502A5081A
:10017800031DB0282308F3002208F2002108F1002B
:100188002008F000080083120313CF006E304F02DE
:10019800031CA7290330C3004308A4000A30F70052
:1001A8000030F8004F08C400C5014408F2004508B3
:1001B800F3006430F0000030F1000A168A111A24A6
:1001C8000A128A117108FA01FA077008F901F90789
:1001D8000A168A11C4240A128A117708093E0A16D7
:1001E8008A1110230A128A11293E84000A168A11DC
:1001F80000200A128A1183120313B0000A168A110A
:1002080000200A128A11B1000A168A1100200A1267
:100218008A11B2000330C6004608A4006430F70013
:100228000030F8004F08C700C8014708F90048081F
:10023800FA000A168A11C4240A128A117708123E93
:100248000A168A1110230A128A11293E84000A16F6
:100258008A1100200A128A1183120313B3000A16A6
:100268008A1100200A128A11B4000A168A11002085
:100278000A128A11B5000A168A112D270A128A1144
:10028800831203133008CC003108CD003208CE00A9
:100298000330C3004308A4004F08C400C501440844
:1002A800F2004508F3000A30F0000030F1000A16A9
:1002B8008A111A240A128A1170080A168A11102340
:1002C8000A128A11293E84000A168A1100200A128D
:1002D8008A1183120313B0000A168A1100200A1229
:1002E8008A11B1000A168A1100200A128A11B20076
:1002F8004C08B3004D08B4004E08B5000A168A1120
:100308002D270A128A11831203133008C9003108F5
:10031800CA003208CB000030B0000030B1003F30D6
:10032800B2004908B3004A08B4004B08B5000A16E1
:100338008A112D27831203133008C0003108C10029
:100348003208C20008000B304F02031C312A033068
:10035800C3004308A4004F08C400C5014408F200C4
:100368004508F3000A30F0000030F1000A168A113F
:100378001A240A128A1170080A168A1110230A12FE
:100388008A11293E84000A168A1100200A128A114D
:1003980083120313B0000A168A1100200A128A1168
:1003A800B1000A168A1100200A128A11B20003301D
:1003B800C6004608A4000A30F7000030F8004F08CD
:1003C800C700C8014708F9004808FA000A168A1148
:1003D800C4240A128A117708093E0A168A111023C2
:1003E8000A128A11293E84000A168A1100200A126C
:1003F8008A1183120313B3000A168A1100200A1205
:100408008A11B4000A168A1100200A128A11B5004E
:100418000A168A112D270A128A118312031330082B
:10042800CC003108CD003208CE000030B0000030DA
:10043800B1003F30B2004C08B3004D08B4004E087C
:10044800B5000A168A112D27831203133008C0003D
:100458003108C1003208C20008000030B000003086
:10046800B1003F30B2000330C3004308A4004F0876
:100478000A168A1110230A128A11293E84000A16C4
:100488008A1100200A128A1183120313B3000A1674
:100498008A1100200A128A11B4000A168A11002053
:1004A8000A128A11B5000A168A112D27831203131E
:1004B8003008C0003108C1003208C20008008316A5
:1004C8000313BD00643083120313E7006708831623
:1004D8000313A70001308312E307FF30630784008A
:1004E8000A168A1100200A128A11E7006708831683
:1004F8000313C100C1080319F72F4108253A03194E
:10050800892A410883120313E62FB001B1018E2A0C
:100518003115A42A013083120313E307FF30630760
:1005280084000A168A1100200A128A1183160313FE
:10053800C100003A0319F72F663A03198C2A6E2A6C
:100548000030300583120313E700073083160313C6
:10055800310583120313E800680867040319D32FD1
:10056800063083160313B2000030B3002708840056
:1005780083130008BE00840A0008BF00840A00082C
:10058800C000033083120313E700670883160313C0
:10059800A7073E08F0003F08F1004008F2000030CD
:1005A800F3000030F4000030F5000A168A116724C1
:1005B8000A128A110318F92A831603133E08F00059
:1005C8003F08F1004008F2000A168A11F0220A12C8
:1005D8008A11700883160313BE007108BF007208E1
:1005E800C0000330B0040030B10483160313BB010C
:1005F800BC0140083F043E040319F52BBE308400BB
:100608008313000883120313E700840A0008E80034
:10061800840A0008E900840A0008EA000F30031081
:10062800EA0CE90CE80CE70CFF3E031D132BFF3026
:100638006705EB0000306805EC006B08823E831606
:100648000313BB00831203136C080318013EFF3E1B
:1006580083160313BC00FF30BB070318BC0AFF3026
:10066800BC070330F0000030F1003C08F301F30749
:100678003B08F201F2070A168A115F230A128A114F
:10068800710883160313BC01BC077008BB01BB07C4
:100698000A30F7000030F8003C08FA01FA073B0876
:1006A800F901F9070A168A11C4240A128A1178086E
:1006B80083160313BC01BC077708BB01BB07BC1F2B
:1006C8006B2BFF30BB070318BC0AFF30BC073B038A
:1006D800FF3A0A128A1585220A128A118312031315
:1006E800400883160313B8008312031341088316C6
:1006F8000313B90083120313420883160313BA00C5
:100708003E0883120313B000831603133F088312B5
:100718000313B10083160313400883120313B200B6
:1007280083160313380883120313B30083160313C5
:10073800390883120313B400831603133A0883128B
:100748000313B5000A168A112D270A128A1183127B
:100758000313300883160313B800831203133108F8
:1007680083160313B9008312031332088316031385
:10077800BA003808F0003908F1003A08F2000030F1
:10078800F3008030F4003F30F5000A168A11672420
:100798000A128A110318D82BFF3083160313BB07DC
:1007A8000318BC0AFF30F42B831603133808F00033
:1007B8003908F1003A08F2000030F3002030F40064
:1007C8004130F5000A168A1167240A128A11031C9F
:1007D800F52B013083160313BB070318BC0A00303E
:1007E800BC07831603133308803AFF0080307F026A
:1007F800031D002C0D30320203183B2C8316031303
:1008080032080A128A11C7200A128A1183120313A6
:100818004008D0004108D1004208D20083160313D3
:100828003E0883120313D300831603133F08831271
:100838000313D40083160313400883120313D5004F
:100848000A128A154A200A128A11831203135008C1
:1008580083160313BE008312031351088316031370
:10086800BF0083120313520883160313C0008316B4
:1008780003133C08803AFF0080307F02031D462C9A
:100888000A303B020318792C8316031340083F04EF
:100898003E040319DA2C3E0883120313C900831699
:1008A80003133F0883120313CA0083160313400877
:1008B80083120313CB000A168A11E7250A128A113C
:1008C800831203134C084B044A044904031DDA2C11
:1008D800831603133C08803AFF0080307F02031D13
:1008E800772C02303B02031CDA2C831603133808DA
:1008F800F0003908F1003A08F2007030F30089304E
:10090800F4004030F5000A168A1167240A128A1189
:100918000318902CF730912CF83083160313BB077B
:100928000318BC0AFF30BC073B080A128A15852247
:100938000A128A1183120313400883160313B8009E
:1009480083120313410883160313B9008312031398
:10095800420883160313BA003E08F0003F08F1006E
:100968004008F2003808F3003908F4003A08F500A6
:100978000A128A1104200A128A11730883160313B3
:10098800A6007208A5007108A4007008A300260834
:10099800B7002508B6002408B5002308B4000030C5
:1009A800BE000030BF000030C000492D831603137D
:1009B8003E0883120313C900831603133F088312EA
:1009C8000313CA0083160313400883120313CB00D2
:1009D8000A168A11E7250A128A11831203134C0892
:1009E80083160313B700831203134B0883160313EC
:1009F800B600831203134A0883160313B500831243
:100A08000313490883160313B4003708FB0036089C
:100A1800FA003508F9003408F8000A128A151F2070
:100A28000A128A11780883120313DD007908DE00A0
:100A38007A08DF00831603133E0883120313E000CD
:100A4800831603133F0883120313E100831603136D
:100A5800400883120313E2000A128A1503200A12BF
:100A68008A11831203135D0883160313BE008312D1
:100A780003135E0883160313BF00831203135F0872
:100A880083160313C000BB01BC01C101C10A4108A0
:100A98000A3A03199F2D410883120313E700013016
:100AA8000310E70DFF3E031D542D0310670D013E93
:100AB80084000A168A1100200A128A11E8000A1610
:100AC8008A1100200A128A11E9000A168A110020E8
:100AD8000A128A11EA000A168A1100200A128A11DB
:100AE800EB006B08831603133702031D912D831245
:100AF80003136A08831603133602031D912D83120C
:100B080003136908831603133502031D912D8312FD
:100B180003136808831603133402031C9F2D013046
:100B280083120313E700670883160313C1074108FC
:100B38000A3A031D4F2D0330300583120313E700D3
:100B4800003083160313310583120313E800680885
:100B580067040319C02D2D30E700831603133D08E1
:100B68008400831203136708831380000130E700B1
:100B7800670883160313BD07FF308312E700670871
:100B880083160313C1074108FF3A0319472E41088A
:100B980083120313E70001300310E70DFF3E031D26
:100BA800D02D0310670D013E84000A168A1100201B
:100BB8000A128A11F0000A168A1100200A128A11F4
:100BC800F1000A168A1100200A128A11F2000A1688
:100BD8008A1100200A128A11F300831603133708BA
:100BE800F7003608F6003508F5003408F4000A1650
:100BF8008A1121250A128A11730883160313AB0080
:100C08007208AA007108A9007008A8000030F30053
:100C18000030F2000030F1000A30F0002B08F70035
:100C28002A08F6002908F5002808F4000A168A118F
:100C3800CE230A128A11730883160313AB007208B5
:100C4800AA007108A9007008A8002808303E83127D
:100C58000313B02D303083120313E70083160313F8
:100C68003D08840083120313670883138000013052
:100C7800E700670883160313BD07FF30BB07031897
:100C8800BC0AFF30BC073C08803AFF0080307F0276
:100C9800031D502E01303B0203182E2E831603131A
:100CA8003308803AFF0080307F02031D5D2E093033
:100CB8003202031C612E0830642E83160313320897
:100CC80083120313E700670883160313C100410862
:100CD80083120313E700E801E71BE803670883169C
:100CE8000313B20283120313680883160313031C49
:100CF800B303B30241080319942E2E308312031351
:100D0800E700831603133D08840083120313670862
:100D1800831380000130E700670883160313BD07BB
:100D280041080A128A1585220A128A1183120313AE
:100D3800400883160313A000831203134108831687
:100D48000313A10083120313420883160313A2009E
:100D5800200883120313B300831603132108831298
:100D68000313B40083160313220883120313B50078
:100D7800831603133E0883120313B000831603136C
:100D88003F0883120313B10083160313400883122C
:100D98000313B2000A168A112D270A128A11831228
:100DA80003133008C9003108CA003208CB000A16FC
:100DB8008A11E7250A128A11831203134C08831635
:100DC8000313B700831203134B0883160313B600EB
:100DD800831203134A0883160313B50083120313FF
:100DE800490883160313B400FF3083120313E70086
:100DF800670883160313C1074108FF3A0319CE2F6A
:100E0800410883120313E70001300310E70DFF3E8A
:100E1800031D092F0310670D013E84000A168A116D
:100E280000200A128A11F0000A168A1100200A12FC
:100E38008A11F1000A168A1100200A128A11F2009A
:100E48000A168A1100200A128A11F3008316031366
:100E58003708F7003608F6003508F5003408F400BE
:100E68000A168A1121250A128A1173088316031398
:100E7800AF007208AE007108AD007008AC00003019
:100E8800F3000030F2000030F1000A30F0002F08C3
:100E9800F7002E08F6002D08F5002C08F4000A16B5
:100EA8008A11CE230A128A11730883160313AF001E
:100EB8007208AE007108AD007008AC002C08303E16
:100EC80083120313E700831603133D08840083127B
:100ED80003136708831380000130E700670883164F
:100EE8000313BD07410883120313E7000130031001
:100EF800E70DFF3E031D7B2F0310670D013E8400A5
:100F08000A168A1100200A128A11F0000A168A119C
:100F180000200A128A11F1000A168A1100200A120A
:100F28008A11F2000A168A1100200A128A11F300A7
:100F3800831603133708F7003608F6003508F5005E
:100F48003408F4000A168A11CE230A128A1173088B
:100F580083160313B7007208B6007108B50070084D
:100F6800F72E303083120313E700831603133D086E
:100F78008400831203136708831380000130E7009D
:100F8800670883160313BD07FF30B2070318B30AB7
:100F9800FF30B3073308320403196E2AB52F033024
:100FA80083160313300583120313E70000308316FA
:100FB8000313310583120313E80068086704031953
:100FC8006E2A2D30E700831603133D088400831230
:100FD80003136708831380000130E700670883164E
:100FE8000313BD076E2A3D0884008313800108009F
:080FF80083010A128A15242D61
:10100600803083120313DF066008D0006108D10028
:101016006208D2005D08D3005E08D4005F08D500E0
:101026000A128A154A20831203135008DD0051085C
:10103600DE005208DF0008008E30FC007C08FD0050
:10104600FF307B050319352801300310FB0CFA0C21
:10105600F90CF80CFF3E031D28280130FC007C0823
:10106600FD0723287808F0007908F1007A08F200D5
:101076007D08FC007C08F300F4010A168A117F251E
:101086007008F8007108F9007208FA000800831267
:1010960003135008D6005108D7005208D800031091
:1010A600570D580DD9005908DC005308D6005408CE
:1010B600D7005508D8000310570D580DD900590808
:1010C600DB005C08031973285B085C0203187A28A6
:1010D6005C03FF3A5B07D60019305602031C7A28D8
:1010E6005308D0005408D1005508D20008005B0808
:1010F600031908005C085B02031889285B03FF3AA2
:101106005C07D60019305602031808000630D600D0
:101116005608DA00D21BDA17D51B5A17D117FF303B
:10112600D005FF30D1050030D205D417FF30D305E6
:10113600FF30D4050030D5055B085C020318C928CA
:1011460001300310D30DD40DD50DFF3E031DA42889
:101156000130DB025B085C060319C4280130DA02A1
:101166005A0807390319C428A32801300310D20CE2
:10117600D10CD00CFF3E031DB9280130D60056080D
:10118600DC075C085B060319F228B8285C085B02DA
:101196000318F22801300310D00DD10DD20DFF3EF9
:1011A600031DCE280130DC025B085C060319EE281D
:1011B6000130DA025A0807390319EE28CD28013022
:1011C6000310D50CD40CD30CFF3E031DE3280130CD
:1011D600D6005608DB075C085B06031DE228DA1F0B
:1011E6000429FF30D006FF30D106FF30D206013089
:1011F600D007003003180130D10700300318013042
:10120600D2075A1F1629FF30D306FF30D406FF3007
:10121600D5060130D307003003180130D40700305B
:1012260003180130D507DA015008D3075108031116
:101236000318510A031DD407520803110318520A52
:10124600031DD507D51F3929FF30D306FF30D40635
:10125600FF30D5060130D307003003180130D4071C
:10126600003003180130D507DA01DA0A5308F00016
:101276005408F1005508F2005C08D6005608F30041
:101286005A08D7005708F4000A168A117F257008F5
:1012960083120313D0007108D1007208D20008002F
:1012A600703084000008F600840A0008F700840AFB
:1012B6000008F800840A0008F9000310780D790D7B
:1012C600FA007A0883120313A500A508031D7429E2
:1012D6000030F3000030F2000030F1000030F00082
:1012E6000800733084000008F600840A0008F7003E
:1012F600840A0008F800840A0008F9000310780D33
:10130600790DFA007A08A400A408031D9329003079
:10131600F3000030F2000030F1000030F000080069
:101326007030840000308004840A00308004840A0F
:1013360080308004840A0030800470308400FF30DE
:101346008005840AFF308005840AFF308005840A00
:10135600003080057330840000308004840A003039
:101366008004840A80308004840A0030800473304C
:101376008400FF308005840AFF308005840AFF3030
:101386008005840A003080050030A3000030A200EA
:101396000030A1000030A0007F30A502A030240755
:1013A600F6007608A5022030F6007608A400013083
:1013B600F6000310A00DA10DA20DA30DF60BDC295E
:1013C600733084000008F600840A0008F700840AD7
:1013D6000008F800840A0008F9007030840000084C
:1013E600FA00840A0008FB00840A0008FC00840A4C
:1013F6000008FD0079087D02031D0B2A78087C028F
:10140600031D0B2A77087B02031D0B2A76087A0236
:10141600031C302A733084000008F600840A000892
:10142600F700840A0008F800840A0008F900703002
:10143600840076088002840A7708031C770F8002EE
:10144600840A7808031C780F8002840A7908031C32
:10145600790A80020330840220147030840003105D
:10146600800D840A800D840A800D840A800D840311
:10147600840384030130A402031DDA29A51F612A0F
:101486002508803A9F3E0318512A0030F3000030A9
:10149600F2000030F1000030F000080001300310C7
:1014A600A30CA20CA10CA00CFF3E031D522A013076
:1014B600F6007608A50703197C2A512A2030250252
:1014C600031C792A0030F3000030F2000030F100EE
:1014D6000030F00008000130F6000310A00DA10D49
:1014E600A20DA30DF60B702A0130A502A508031D57
:1014F6006E2A2308F3002208F2002108F1002008D2
:10150600F000080083120313C800C81FD82BC809AF
:10151600C80A4808803A123E031C4B2B0330C3000E
:101526004308A4000A30F7000030F8004808F2002B
:10153600F301F21BF3036430F0000030F1000A16E9
:101546008A111A240A128A157108FA01FA07700814
:10155600F901F9070A168A11C4240A128A157708AE
:10156600093E0A168A1110230A128A15293E84009A
:101576000A168A1100200A128A1583120313B00074
:101586000A168A1100200A128A15B1000A168A1153
:1015960000200A128A15B2000330C4004408A400D1
:1015A6006430F7000030F8004808F900FA01F91B2A
:1015B600FA030A168A11C4240A128A157708123EFB
:1015C6000A168A1110230A128A15293E84000A1661
:1015D6008A1100200A128A1583120313B3000A1611
:1015E6008A1100200A128A15B4000A168A110020F0
:1015F6000A128A15B5000A168A112D270A128A15AB
:10160600831203133008C5003108C6003208C7002C
:101616000330C3004308A4004808F200F301F21B9C
:10162600F3030A30F0000030F1000A168A111A247A
:101636000A128A1570080A168A1110230A128A15C8
:10164600293E84000A168A1100200A128A1583127E
:101656000313B0000A168A1100200A128A15B10077
:101666000A168A1100200A128A15B2004508B3002C
:101676004608B4004708B5000A168A112D278312BA
:1016860003133008C0003108C1003208C200080048
:101696004808803A753E031CB92B0330C300430843
:1016A600A4004808F200F301F21BF3030A30F0002D
:1016B6000030F1000A168A111A240A128A157008D7
:1016C6000A168A1110230A128A15293E84000A1660
:1016D6008A1100200A128A1583120313B0000A1613
:1016E6008A1100200A128A15B1000A168A110020F2
:1016F6000A128A15B2000330C4004408A4000A3056
:10170600F7000030F8004808F900FA01F91BFA035F
:101716000A168A11C4240A128A157708093E0A167F
:101726008A1110230A128A15293E84000A168A1184
:1017360000200A128A1583120313B3000A168A11AF
:1017460000200A128A15B4000A168A1100200A120D
:101756008A15B5000A168A112D278312031330083D
:10176600C0003108C1003208C20008000330C300BF
:101776004308A40048080A168A1110230A128A157B
:10178600293E84000A168A1100200A128A1583123D
:101796000313C0000A168A1100200A128A15C10016
:1017A6000A168A110020C20008004808803A123E34
:1017B600031C972C0330C3004308A4000A30F7002B
:1017C6000030F8004808F200F301F21BF30364301E
:1017D600F0000030F1000A168A111A240A128A153E
:1017E6007108FA01FA077008F901F9070A168A1151
:1017F600C4240A128A157708093E0A168A1110238C
:101806000A128A15503E84000A168A1100200A120E
:101816008A1583120313B0000A168A1100200A12D1
:101826008A15B1000A168A1100200A128A15B2001A
:101836000330C4004408A4006430F7000030F80008
:101846004808F900FA01F91BFA030A168A11C4249A
:101856000A128A157708123E0A168A1110230A12EE
:101866008A15503E84000A168A1100200A128A152B
:1018760083120313B3000A168A1100200A128A156E
:10188600B4000A168A1100200A128A15B5000A1633
:101896008A112D270A128A15831203133008C500F0
:1018A6003108C6003208C7000330C3004308A4004D
:1018B6004808F200F301F21BF3030A30F00000308F
:1018C600F1000A168A111A240A128A1570080A16D5
:1018D6008A1110230A128A15503E84000A168A11AC
:1018E60000200A128A1583120313B0000A168A1101
:1018F60000200A128A15B1000A168A1100200A125F
:101906008A15B2004508B3004608B4004708B5007A
:101916000A168A112D27831203133008C0003108D6
:10192600C1003208C20008004808803A753E031C10
:10193600052D0330C3004308A4004808F200F30154
:10194600F21BF3030A30F0000030F1000A168A1188
:101956001A240A128A1570080A168A1110230A1206
:101966008A15503E84000A168A1100200A128A152A
:1019760083120313B0000A168A1100200A128A1570
:10198600B1000A168A1100200A128A15B200033025
:10199600C4004408A4000A30F7000030F8004808E4
:1019A600F900FA01F91BFA030A168A11C4240A126D
:1019B6008A157708093E0A168A1110230A128A1513
:1019C600503E84000A168A1100200A128A158312D4
:1019D6000313B3000A168A1100200A128A15B400EE
:1019E6000A168A1100200A128A15B5000A168A11EB
:1019F6002D27831203133008C0003108C1003208B6
:101A0600C20008000330C3004308A40048080A16B1
:101A16008A1110230A128A15503E84000A168A116A
:101A260000200A128A1583120313C0000A168A11AF
:101A360000200A128A15C1000A168A110020C20067
:101A46000800831603138601880183120313860197
:101A560088010A168A11A8230A128A150A168A11FB
:101A660001230A128A1580300A168A114B230A129C
:101A76008A1548300A168A1137230A128A157530D4
:101A86000A168A1137230A128A156D300A168A1128
:101A960037230A128A1569300A168A1137230A1261
:101AA6008A1564300A168A1137230A128A15693094
:101AB6000A168A1137230A128A1574300A168A11F1
:101AC60037230A128A1579300A168A1137230A1221
:101AD6008A153A300A168A1137230A128A15C03037
:101AE6000A168A114B230A128A1554300A168A11CD
:101AF60037230A128A1565300A168A1137230A1205
:101B06008A156D300A168A1137230A128A15703023
:101B16000A168A1137230A128A1565300A168A119F
:101B260037230A128A1572300A168A1137230A12C7
:101B36008A1561300A168A1137230A128A157430FB
:101B46000A168A1137230A128A1575300A168A115F
:101B560037230A128A1572300A168A1137230A1297
:101B66008A1565300A168A1137230A128A153A3001
:101B76000A168A1137230A128A150A168A11DA22D8
:101B86000A128A1580300A168A11F8220A128A1554
:101B9600E5300A168A11F8220A128A150A168A11DF
:101BA600D3220A128A1581300A168A11F8220A12DD
:101BB6008A1501300A168A1182230A128A1583129F
:101BC6000313ED00EE016D0883160313D80083128C
:101BD60003136E0883160313D90000300A168A1100
:101BE60082230A128A1583120313ED00EE016D0893
:101BF60083160313DA00831203136E088316031386
:101C0600DB000A168A11E1220A128A1583160313CB
:101C1600580883120313EE00ED016D0883160313B3
:101C2600E000831203136E0883160313E100FC30F1
:101C36005A0583120313ED000030831603135B0568
:101C460083120313EE008316031360088312031333
:101C56006D0483160313E0006108831203136E04F8
:101C660083160313E100003083120313D000C03043
:101C7600D100C030D2000030B000FA30B10042309E
:101C8600B2000030A0008030A1004730A2008316C9
:101C960003136108F901F9076008F801F8070A1645
:101CA6008A1123230A128A15780883120313A300C4
:101CB6007908A4007A08A5000A168A1175260A1260
:101CC6008A15831203132008B3002108B4002208E2
:101CD600B5000A168A112D270A128A1583120313D4
:101CE6003008D3003108D4003208D5000A128A150C
:101CF6004A200A128A158312031350088316031307
:101D0600C20083120313510883160313C300831200
:101D16000313520883160313C40077308312031388
:101D2600ED006D08E30083160313420883120313C4
:101D3600E40083160313430883120313E500831696
:101D46000313440883120313E600C8300A128A11EB
:101D560063220A128A158A300A168A114B230A123E
:101D66008A158316031348080A168A1137230A129E
:101D76008A158316031349080A168A1137230A128D
:101D86008A15831603134A080A168A1137230A127C
:101D96008A15831603134B080A168A1137230A126B
:101DA6008A15831603134C080A168A1137230A125A
:101DB6008A1525300A168A1137230A128A150A1639
:101DC6008A11DA220A128A1580300A168A11F82236
:101DD6000A128A15E3300A168A11F8220A128A159F
:101DE6000A168A11D3220A128A1581300A168A1116
:101DF600F8220A128A1501300A168A1182230A125B
:101E06008A1583120313ED00EE016D088316031382
:101E1600DC00831203136E0883160313DD00003003
:101E26000A168A1182230A128A1583120313ED00F9
:101E3600EE016D0883160313DE00831203136E088A
:101E460083160313DF000A168A11E1220A128A1585
:101E5600831603135C0883120313EE00ED016D086D
:101E660083160313E200831203136E08831603130B
:101E7600E300FC305E0583120313ED000030831689
:101E860003135F0583120313EE0083160313620820
:101E9600831203136D0483160313E200630883128F
:101EA60003136E0483160313E300663083120313D1
:101EB600D0003B30D100C230D200B830B0002F3055
:101EC600B1004330B2000030A0008030A10047309E
:101ED600A200831603136308F901F9076208F801E3
:101EE600F8070A168A1123230A128A15780883121C
:101EF6000313A3007908A4007A08A5000A168A111C
:101F060075260A128A15831203132008B3002108C6
:101F1600B4002208B5000A168A112D270A128A155E
:101F2600831203133008D3003108D4003208D500D9
:101F36000A128A154A200A128A15831203135008B8
:101F460083160313C5008312031351088316031364
:101F5600C60083120313520883160313C700773093
:101F660083120313ED006D08E3008316031345087F
:101F760083120313E4008316031346088312031324
:101F8600E50083160313470883120313E600D030D7
:101F96000A128A1163220A128A15CC300A168A118D
:101FA6004B230A128A158316031350080A168A1140
:101FB60037230A128A158316031351080A168A1143
:101FC60037230A128A158316031352080A168A1132
:101FD60037230A128A158316031353080A168A1121
:101FE60037230A128A158316031354080A168A1110
:101FF60037230A128A154330BB2D10308A00040895
:10200600840A8207003401340034003400340A3470
:102016000034003400346434003400340034E834CE
:102026000334003400341034273400340034A03430
:10203600863401340034403442340F340034803462
:102046009634983400340034E134F53405340034E1
:10205600CA349A343B34003480343F34CD34CC34E3
:102066003D34D73423343C34123483343A34B734D1
:10207600D1343834C634273437343834863435349A
:10208600C034D6343334CC342B34323470348934BF
:102096003034E734DB342E34E5343C341E344234F9
:1020A600A2340D34003480343F34003420344134BB
:1020B6000034C834423400347A34443440341C3456
:1020C60046345034C3344734243474344934973452
:1020D60018344B34BC34BE344C346B346E344E340A
:1020E6000334153450347934AD346034F334493420
:0820F600713425346634003416
:1025A6000A168A11E82283160313911408000A16E4
:1025B6008A11E82283160313111408000A168A11D9
:1025C600E822831603131115080083160313110856
:1025D6001F3903191419E82A0800720871047004D7
:1025E600031908008030F2060800F0000A168A1166
:1025F600E82270088312031393000800831603135E
:1026060087150716283083120313940083160313C5
:102616009101940109309300080083120313A60068
:10262600A501261C1A2B2408FC007C08A50703100C
:10263600A40D0310A60CA608031D142B25080800DC
:102646007808F0007908F100F2018E30FB007B0873
:10265600F300F4010A168A117F257008F800710844
:10266600F9007208FA000800F200720883120313D8
:102676008600081488148230F100DD30F000F00B7B
:10268600422BF10B422B472B8312031388100800B1
:10269600F200720883120313860008108814823031
:1026A600F100DD30F000F00B562BF10B562B5B2BB7
:1026B6008312031388100800F401F501701C692BBE
:1026C6007208F4070318F50A7308F50701300310BA
:1026D600F20DF30DFF3E031D6A2B01300310F10CC2
:1026E600F00CFF3E031D712B71087004031D612B56
:1026F6007508F101F1077408F001F0070800F10010
:102706000A168A11E8220A168A11831603139115EE
:102716000A168A11E8220A168A118312031313086D
:10272600F0007008F2000A168A11E8220A168A11C9
:10273600F108031DA22B831603139116A52B8316EE
:10274600031391121116720808008230F400DD306E
:10275600F300F30BAC2BF40BAC2BB12B38300A1671
:102766008A114B230A168A1108300A168A114B233E
:102776000A168A1101300A168A114B230A168A1183
:1027860006300A168A114B230A168A110C300A16CD
:102796008A114B230800730872047104700403192C
:1027A600112CF901F90AF31BE62B0130F80003108E
:1027B600F00DF10DF20DF30DF80BDA2B0130F800E8
:1027C6007808F907D62B73087702031DF42B7208D5
:1027D6007602031DF42B71087502031DF42B700895
:1027E6007402031C042C7008F4027108031C710F98
:1027F600F5027208031C720FF6027308031C730FAE
:10280600F70201300310F30CF20CF10CF00CFF3E52
:10281600031D052C0130F902031DE62B7708F30092
:102826007608F2007508F1007408F0000800F60159
:10283600F31F242CF209F309F20A0319F30AF6012D
:10284600F60AF11F2B2CF009F109F00A0319F10A17
:10285600710870040319582CF501F50AF11B3F2C79
:1028660001300310F00DF10DFF3E031D342C013035
:10287600F4007408F507312C71087302031D452C0A
:1028860070087202031C4D2C7008F2027108031CBA
:10289600F303F30201300310F10CF00CFF3E031DAD
:1028A6004E2C0130F502031D3F2C76080319602CCF
:1028B600F209F309F20A0319F30A7308F101F107A1
:1028C6007208F001F0070800F21F8E2C0030F600A7
:1028D6000030F7008030F8007009F9007109FA003D
:1028E6007209FB00F90A0319FA0A0319FB0A7908A7
:1028F600F6077A0803187A0F812C822CF7077B08D3
:1029060003187B0F872C882CF8077608F0007708C9
:10291600F1007808F200F51FB52C0030F600003003
:10292600F7008030F8007309F9007409FA00750998
:10293600FB00F90A0319FA0A0319FB0A7908F607D4
:102946007A0803187A0FA82CA92CF7077B08031816
:102956007B0FAE2CAF2CF8077608F3007708F4004F
:102966007808F5008030F2068030F50675087202A8
:10297600031D080074087102031D08007308700225
:10298600080083120313A101F81FD02CF709F809D8
:10299600F70A0319F80AA101A10AFA1FDB2CF909A3
:1029A600FA09F90A0319FA0A0130FB007B08A106A5
:1029B600A201A301780877040319122DA001A00A29
:1029C600F81BF12C01300310F70DF80DFF3E031D27
:1029D600E62C0130FB007B08A007E32C0130031036
:1029E600A20DA30DFF3E031DF22C78087A02031DEB
:1029F600FE2C77087902031C072D7708F902780860
:102A0600031CFA03FA02221401300310F80CF70C27
:102A1600FF3E031D082D0130A002031DF12C2108E5
:102A260003191A2DA209A309A20A0319A30A230846
:102A3600F801F8072208F701F70708000030FC0044
:102A46000030FB000030FA000030F9007308720411
:102A5600710470040319762DFD01FD0AF31B412D47
:102A66000130F8000310F00DF10DF20DF30DF80B27
:102A7600352D0130F8007808FD07312D0130F800BA
:102A86000310F90DFA0DFB0DFC0DF80B432D730821
:102A96007702031D582D72087602031D582D710802
:102AA6007502031D582D70087402031C692D7008E9
:102AB600F4027108031C710FF5027208031C720FF1
:102AC600F6027308031C730FF70279140130031022
:102AD600F30CF20CF10CF00CFF3E031D6A2D0130D5
:102AE600FD02031D412D7C08F3007B08F2007A08E5
:102AF600F1007908F000080073080319872D7208A1
:102B060071047004031D9A2D0030F0000030F100AE
:102B16000030F20008000130F5007508F3070130B7
:102B26000310F20CF10CF00CFF3E031D932DFE304A
:102B360072050319B52D8E2D0130F5007508F307C2
:102B46000130F007003003180130F1070030031898
:102B56000130F20701300310F20CF10CF00CFF3ECD
:102B6600031DAE2DFF3072050319C42D9F2D0130B4
:102B7600F30201300310F00DF10DF20DFF3E031DBF
:102B8600BD2DF11FBA2D7318CE2DFF30F0057F3005
:102B9600F105FF30F2050310F30C7308F500F6019A
:102BA600F70110300310F50DF60DF70DFF3E031D6E
:102BB600D52D7508F0047608F1047708F204740838
:102BC60003190800F2170800831203134908CD0001
:102BD6004A08CE004B08CF0003104E0D4F0DD00013
:102BE6005008D600D608031D012E0030CC00003058
:102BF600CB000030CA000030C90008004908CD00EB
:102C06004A08CE004B08CF0017300310CF0CCE0C6D
:102C1600CD0CFF3E031D082E4D08D0005008D100F4
:102C2600CA17FF30C905FF30CA050030CB05490871
:102C3600D2004A08D3004B08D400D5018E30D60204
:102C4600D61F432E5608803A8F3E0318332E003087
:102C5600CC000030CB000030CA000030C9000800AC
:102C660001300310D50CD40CD30CD20CFF3E031D3F
:102C7600342E0130CD004D08D60703195E2E332EB3
:102C860018305602031C5B2E0030CC000030CB00FF
:102C96000030CA000030C90008000130CD00031022
:102CA600D20DD30DD40DD50DCD0B522E0130D6023B
:102CB600D608031D502E510803196C2ED209D309CC
:102CC600D409D509D20A0319D30A0319D40A031958
:102CD600D50A5508CC005408CB005308CA00520840
:102CE600C9000800831203132308A6002408A700BE
:102CF6002508A8000310270D280DA9002908AE00F5
:102D0600AE08031D8D2E0030A0000030A10000305B
:102D1600A20008002008A6002108A7002208A80093
:102D26000310270D280DA9002908AF00AF08031DC1
:102D3600A32E0030A0000030A1000030A200080041
:102D46000030AB000030AC000030AD0089302F07FA
:102D5600A6002608AE022308A6002408A700250818
:102D6600A80010300310A80CA70CA60CFF3E031DEC
:102D7600B52E2608A9002908AF002008A6002108BC
:102D8600A7002208A80010300310A80CA70CA60C58
:102D9600FF3E031DC72E2608A9002908AF0680306E
:102DA600A6002608AF05A417FF30A305FF30A4052B
:102DB6000030A505A117FF30A005FF30A1050030A2
:102DC600A2051830A6002608AA0001300310AB0D94
:102DD600AC0DAD0DFF3E031DE92E22082502031D95
:102DE600FA2E21082402031DFA2E20082302031CB2
:102DF600072F2008A3022108031C210FA402220882
:102E0600031C220AA5022B1401300310A30DA40DE6
:102E1600A50DFF3E031D082F0130AA02031DE82E53
:102E26002B08F0002C08F1002D08F2002E08A60051
:102E36002608F3002F08A7002708F4000A168A11AF
:102E46007F25700883120313A0007108A100720881
:102E5600A2000800831203133008B6003108B70039
:102E66003208B8000310370D380DB9003908BA001A
:102E7600BA08031D452F0030B0000030B100003005
:102E8600B20008003308B6003408B7003508B800A9
:102E96000310370D380DB9003908BF00BF08031DF0
:102EA6005B2F0030B0000030B1000030B2000800E7
:102EB6003F087B3EB6003608BA073008B600310830
:102EC600B7003208B80010300310B80CB70CB60CB7
:102ED600FF3E031D672F3608B9003908BF003308C7
:102EE600B6003408B7003508B80010300310B80C27
:102EF600B70CB60CFF3E031D792F3608B90039080A
:102F0600BF068030B6003608BF05B117B417FF30CC
:102F1600B305FF30B4050030B5050030BB00003006
:102F2600BC000030BD000730B6003608BE00301CBD
:102F3600AA2F3308BB07340803110318340A031DEC
:102F4600BC07350803110318350A031DBD070130F8
:102F56000310B20CB10CB00CFF3E031DAB2F0130B9
:102F66000310B30DB40DB50DFF3E031DB32F013095
:102F7600BE02031D9A2F0930B6003608BE00301C6B
:102F8600D22F3308BB07340803110318340A031D74
:102F9600BC07350803110318350A031DBD070130A8
:102FA6000310B20CB10CB00CFF3E031DD32F013041
:102FB6000310BD0CBC0CBB0CFF3E031DDB2F013008
:102FC600BE02031DC22F3B08F0003C08F1003D087D
:102FD600F2003A08B6003608F3003F08B700370893
:102FE600F4000A168A117F25700883120313B000B5
:0A2FF6007108B1007208B200080073
:02400E0071FF40
:00000001FF
