:060000000A128A11FC2F18
:100F2A000630831603139F00013085008601831261
:100F3A000313860183120313051C9F2F0130F0004F
:100F4A000030F1007108803AFF0080307F02031DF3
:100F5A00B02F0430700203189F2FF201F3017308B7
:100F6A00803AFF00A7307F02031DBD2F10307202A6
:100F7A000318D02F0130F2070318F30A0030F307E1
:100F8A007308803AFF00A7307F02031DCE2F10306E
:100F9A007202031CBF2F0130831203138600F20171
:100FAA00F3017308803AFF00A7307F02031DDF2F89
:100FBA00103072020318F22F0130F2070318F30AF5
:100FCA000030F3077308803AFF00A7307F02031D41
:100FDA00F02F10307202031CE12F831203138601D3
:100FEA000130F0070318F10A0030F107A72F830137
:060FFA000A128A11952F76
:02400E0071FF40
:00000001FF
