:060000000A128A11122809
:10000800FE00030EF2000408F3000A08F40083124D
:1000180003137F08F5000A128A1189280A128A1127
:100028001528F801F901FA01FB01FC01FD01830122
:100038000A128A111F2801308316031386008701CC
:100048000F308800443081000B168B160B118B176C
:10005800831203138701F801F901003079020A308D
:1000680003197802031C3A28F801F9016230F600F6
:100078000030F7000A128A11E8200A128A115D2856
:100088008312031387018228013059280230592826
:100098000330592804305928053059280630592882
:1000A800073059280830592809308312031387006C
:1000B80082287908003A0319622882287808003AC9
:1000C80003194428013A03194828033A03194A280E
:1000D800013A03194C28073A03194E28013A031923
:1000E8005028033A03195228013A031954280F3AA1
:1000F80003195628013A0319582882280130F807AD
:100108000318F90A0030F90731288B138B1CD32800
:100118008B1008080F39F000F1017008FC00710815
:10012800FD00AE280130A7280230A7280330A728F1
:100138000430A7280530A7280630A7280730A728A5
:100148000830A7280930F8000030F900D328F80152
:10015800F901D3287D08003A0319B328D3287C086D
:10016800003A03199628013A03199828033A031903
:100178009A28063A03199C28013A03199E28033A3B
:100188000319A0280E3A0319A228013A0319A42832
:10019800033A0319A628073A0319AB28D3280B1DDD
:1001A800DC280B110130FA070318FB0A0030FB07A3
:1001B8008B177508FF0074088A0073088400720E94
:1001C8008300FE0E7E0E0900FA01FB0177087B0210
:0E01D800031DF02876087A0203180800EA28B2
:02400E0071FF40
:00000001FF
